:020000040800F2
:10000000A844002001010008AD2B0008D7280008F3
:10001000552B0008B50D0008DF6A0008000000003D
:10002000000000000000000000000000275600084B
:10003000AB0F000800000000170C0008295600084C
:100040001B0100081B0100081B0100081B01000820
:100050001B0100081B0100081B0100081B01000810
:100060001B0100081B0100081B010008750F000898
:100070001B0100081B0100081B0100081B010008F0
:100080001B0100081B0100081B0100081B010008E0
:10009000696A00081B0100081B0100081B01000819
:1000A0001B0100081B0100081B0100081B010008C0
:1000B0001B0100081B0100081B0100081B010008B0
:1000C0001B0100081B0100081B0100081B010008A0
:1000D0001B0100081B0100081B0100081B01000890
:1000E0001B0100081B0100081B010008DFF80CD0F1
:1000F00000F0E6FC00480047ED760008A844002028
:100100000648804706480047FEE7FEE7FEE7FEE7B1
:10011000FEE7FEE7FEE7FEE7FEE7FEE7BD56000866
:10012000ED00000872B6704762B67047EFF31080BA
:1001300072B6704780F31088704730BF704720BF99
:100140007047B0FA80F0704790FAA0F0B0FA80F0F3
:10015000704790FAA0F070472DE9F04F4FF0000C77
:100160004FF0000301EB1C6EBEF90250BEF90040D7
:100170000EF5807EBEF90290BEF900800EF5807EFD
:10018000BEF90270BEF900600EF5807EBEF902B0C5
:10019000BEF900A00EF5807ED044D944A8EB4A0AEF
:1001A000A9EB4B0B4FEAA4044FEAA50504EBA60408
:1001B00005EBA705A4EB6606A5EB670704EBA8040F
:1001C00005EBA905A4EB6808A5EB690906EBAB06EE
:1001D000A7EBAA07A6EB6B0B07EB6A0A458020F892
:1001E000044B478020F8046BA0F8029020F8048BA1
:1001F000A0F802A020F804BB03F1010393FAA3FCCA
:10020000402BAFD1A0EB82014FF0100312090FF287
:10021000361000F1000006B403EB430C6144A2F574
:10022000803202EB8332B1F90250B1F90040A1EB08
:100230000301B0F902B0B0F900A000F10400A5EB91
:10024000040E0EFB0BFC0AEB4B0E05FB0ACB04FB6A
:100250000ECAB1F90250B1F90040A1EB0301B0F9A7
:100260000290B0F9008000F10400A5EB040E0EFB33
:1002700009FC08EB490E05FB08C904FB0EC8B1F9DF
:100280000250B1F90040A1EB0301B0F90270B0F9DE
:10029000006000F10400A5EB040E0EFB07FC06EB6A
:1002A000470E05FB06C704FB0EC6B1F90250B1F9B3
:1002B000004001F10001D044D944A8EB4A0AA9EB5F
:1002C0004B0B4FEAA4044FEAA50504EB264405EBCB
:1002D0002745A4EBE636A5EBE73704EB284405EB0E
:1002E0002945A4EBE838A5EBE93906EB2B46A7EB4B
:1002F0002A47A6EBEB3B07EBEA3A4D800C8019440A
:100300004F800E801944A1F80290A1F80080194492
:10031000A1F802A021F804BBB2F5803283DA03EB26
:10032000430C6144A2F101025FEA024E18BFA0EB48
:100330000C007FF476AF06BC4FEA830392087FF48B
:100340006AAFBDE8F08F00400000004000000040B0
:1003500000005DDD213BA3227E180000412D7EA51B
:10036000412D0000412D00C000405DDD82E75DDDD4
:10037000213B7EA5412D00400000004000000040D0
:100380000000AA2A94126B39460649327C0CA81147
:100390008E2349327C0CA3227E1821F77931AA2AB8
:1003A0009412A8118E235DDD213BA3227E1800004C
:1003B000412D95C6B13F461A2B1E58EE3735BEB4B7
:1003C000C53EA8118E235DDD213B63A97138DF088E
:1003D0009A28B7CDC53E7EA5412D0000412D00C015
:1003E000004063A92B1E21F77931BEB4C53EBEB4CF
:1003F0007C0C58EE373561AC213B95C6BAF9BAE5AD
:1004000071383BA737355DDD82E75DDD213B7EA599
:10041000412D21F766D756D53F3D3BA78E23A81126
:10042000C9CAB7CDC53E61AC7E18AA2AC1C295C65D
:10043000B13FBEB47C0C0040000000400000004012
:1004400000001E3BB504693E9201C83C2403EB3515
:100450006409C83C24036B3946066C30060E1E3B0B
:10046000B504EB356409AA2A94126B394606493261
:100470007C0CAE240917AF37D607882E8D0F7E1E51
:100480005D1BEB356409AA2A941224188C1F1E34B4
:10049000F10AB3269015A8118E2349327C0CA322B1
:1004A0007E18140B60276C30060E7E1E5D1B7104D7
:1004B000FB2A882E8D0F461A2B1EC7FD5A2E9D2C07
:1004C0001211FE15E72021F77931AA2A9412A811FA
:1004D0008E2387F05334B2281314480D202602EAE5
:1004E000E536B3269015DF089A289CE32B39AE2415
:1004F00009177104FB2A5DDD213BA3227E18000051
:10050000412D4ED7C53C9320EF198FFB6C2F78D12E
:10051000153E7E1E5D1B21F77931E2CB0F3F641C37
:10052000C61CB8F2683395C6B13F461A2B1E58EE6A
:10053000373597C1FB3F24188C1F02EAE536F0BC23
:10054000EC3FFE15E720BAE57138A6B8853FD51314
:100550003D2282E1DB39BEB4C53EA8118E235DDDAC
:10056000213B40B1AF3D790FDA244DD9423C2EAE4C
:10057000423C480D202656D53F3D8EAB823A140BA7
:10058000602778D1153E63A97138DF089A28B7CD66
:10059000C53EB1A71236A906CE2915CA4F3F78A687
:1005A00068337104FB2A95C6B13FBCA57630390289
:1005B000212C38C3EC3F7EA5412D0000412D00C009
:1005C0000040BCA5CE29C7FD5A2EF0BCEC3F78A652
:1005D00020268FFB6C2F09BAB13FB1A73D2257F9F6
:1005E00076304DB74F3F63A92B1E21F77931BEB44A
:1005F000C53E8EABEF19ECF474325EB2153E2EAEF2
:100600009015B8F268332DB03F3D40B1121187F01C
:1006100053342EAE423CBEB47C0C58EE373561AC40
:10062000213BA6B8D6072BEC1236C8AADB39F0BCA2
:10063000240302EAE53663A9713897C16EFEDCE750
:10064000B03734A8E53695C6BAF9BAE571383BA794
:100650003735E2CB0FF59CE32B3978A6683378D198
:1006600073F082E1DB39EDA579314ED7EDEB6DDF2B
:10067000823A99A56C2F5DDD82E75DDD213B7EA589
:10068000412D9CE33AE352DBB63B99A5FB2A02EAF3
:1006900019DF4DD9423CEDA59A2887F026DB4ED7CD
:1006A000C53C78A6202621F766D756D53F3D3BA707
:1006B0008E23C7FDDFD363D3AF3D34A8E720710499
:1006C00094D078D1153E63A92B1E140B8CCD94CFFA
:1006D000723EC8AA5D1BA811C9CAB7CDC53E61ACA0
:1006E0007E18241850C8E2CB0F3F2EAE90157E1E08
:1006F00025C615CA4F3F2DB09412AE244AC451C826
:10070000853F5EB28D0FAA2AC1C295C6B13FBEB465
:100710007C0C6C308EC1E2C4D43F4DB76409EB351C
:10072000B1C038C3EC3F09BA46061E3B2CC097C186
:10073000FB3FF0BC2403202A04DB203A21FA02F01C
:100740000021704721FA02F3D040C2F1200291400B
:1007500008431946704740EA01039B0703D009E0AC
:1007600008C9121F08C0042AFAD203E011F8013B9D
:1007700000F8013B521EF9D27047D2B201E000F8F6
:10078000012B491EFBD270470022F6E710B5134635
:100790000A4604461946FFF7F0FF204610BDF0B4A4
:1007A00080EA0102D40F4200B2EB410F02D20246AE
:1007B000084611464A0042D0C30DDDB2C1F3C7520C
:1007C000AD1A202D35DAC1F3160141F4000204B14F
:1007D0005242C5F1200602FA06F12A411044B3EB59
:1007E000D05F23D0C4B1012DA0EBC35009DCF0BC15
:1007F0004FF0004202EAC352DBB200F5000000F005
:10080000DFB8400000F1807000EBC350A0F18070B1
:1008100040EAD170490009E0490841EAC071A0EB03
:10082000C35000F50000400800EBC350F0BC00F0DE
:10083000BEB86142012202EB4101001BF6E7F0BCA9
:10084000704781F00041AAE780F00040A7E780EA06
:10085000010210B502F00043400022D04A001FD030
:10086000010E01EB1261C0F35600C2F3560240F4D0
:10087000000042F40002A0FB022000047F391404AF
:1008800000D0401C50EA124001D44000491EC2B2C0
:100890000C0604EBD010401C4008802A02D003E074
:1008A000002010BD20F00100002900DA00201843CC
:1008B00010BD420005D0C0F3C7525242914201DC44
:1008C0000020704700EBC150704770B521F0004325
:1008D00003430CD0C1F30A550024D5EB040564EBA7
:1008E0000403D617AD1AB34102DB0020014670BDE8
:1008F000201841EB025170BDC10F80EAE07008443E
:10090000CA079623002100F05BB820F00040C10D1B
:10091000C0F3160040F400007F2901DA0020704780
:10092000962903DCC1F19601C8407047963988408A
:10093000704700F0004230F000400AD0C10D01F5D0
:100940006071C0F3160042EA0151C208400711432A
:10095000704700200146704701F0004330B421F099
:10096000004150EA010206D00A0DA2F56072C1F3FF
:100970001301002A02DC30BC00207047440F44EA17
:10098000C104C100E01830BC00EBC25000F00FB849
:10099000202A04DB203A00FA02F10020704791403F
:1009A000C2F1200320FA03F3194390407047002955
:1009B000A8BF7047401C490008BF20F001007047E5
:1009C00010B4B0FA80FC00FA0CF050EA010404BF45
:1009D00010BC704749B1CCF1200421FA04F411FA9B
:1009E0000CF118BF012121430843A3EB0C01CB1DDF
:1009F0004FEA00614FEA102042BF002010BC704750
:100A000000EBC35010440029A4BF10BC7047401C29
:100A1000490008BF20F0010010BC70472DE9F04DDF
:100A200000231A461B1A8A4103DB00200146BDE859
:100A3000F08DC1F30A52C1F3130141F480154FF058
:100A4000000BD10702D100186D41521E0027044649
:100A500040F2FF11384601EB620A3E4680460246EC
:100A600000204FF48011FFF766FEC2197141BB18D8
:100A700046EB0100B4EB030C75EB000C04D3E41A55
:100A800065EB000517460E46241908F101006D417B
:100A900080463428E3DDF91946EB0600091BA8411E
:100AA00003D24FF0FF32134601E0002213461BEB46
:100AB000070046EB0A51BDE8F04D00F013B8000006
:100AC000064C074D06E0E06840F0010394E807009B
:100AD00098471034AC42F6D3FFF70CFB7CA3000818
:100AE0009CA3000810B5141E73F1000408DA401C22
:100AF00041F1000192185B411A4301D120F001003D
:100B000010BD2DE9F04D92469B4611B1B1FA81F22C
:100B100002E0B0FA80F220329046FFF739FF044637
:100B20000F4640EA0A0041EA0B0153465A46084381
:100B300013D0114653EA010019D0C8F140025046C3
:100B4000FFF7F9FD05460E46504659464246FFF767
:100B50001FFF084305D0012004E020463946BDE8C8
:100B6000F08D0020054346EAE0762C4337430A988F
:100B70006305E40AA0EB08000022FD0A44EA47549A
:100B80000A3002D500200146E9E701051019694144
:100B9000DDE9084500196941BDE8F04DA2E770B5EF
:100BA0008C1810F8015B15F0070301D110F8013B18
:100BB0002A1106D110F8012B03E010F8016B01F89F
:100BC000016B5B1EF9D12B0705D40023521E0DD4F7
:100BD00001F8013BFAE710F8013BCB1A921C03E045
:100BE00013F8015B01F8015B521EF9D5A142D8D37D
:100BF000002070BD18484FF0FF010170002080F305
:100C000009881648016881F3088815484FF080511B
:100C1000016062B6FEE772B6EFF3098028B12038B2
:100C200080E8F00F0F490968086000B50E4880475A
:100C30005DF804EB0D480E490A78027009480D4929
:100C40000A680260106890E8F00F203080F309888D
:100C50004EF0040E62B6704722ED00E0D80000208E
:100C600004ED00E0D0000020953D00086200002067
:100C700063000020D400002070B50446006881683D
:100C8000C943C9071CD1816821F00101816000F0CE
:100C90003FFF05460FE000BF00F03AFF401B02286F
:100CA00009D9A06A40F01000A062E06A40F001009B
:100CB000E062012070BD20688068C043C007EBD0AF
:100CC000002070BD10B50146406A826A12F0500FD4
:100CD00005D0006A026BBDE8104008461047816AE3
:100CE00041F40071816201688968C1F342410729BA
:100CF0000CD1017B51B9816A21F480718162816AD2
:100D0000C90403D4816A41F00101816200F0E8FA6C
:100D100010BD10B5406A816A41F040018162C16A2C
:100D200041F00401C16200F042FB10BD10B5406A01
:100D300000F03CFB10BD0000F8B50026044600960C
:100D400000688168C943C90728D0816841F0010162
:100D50008160134813490068B0FBF1F000E0401EC9
:100D600000900028FBD100F0D3FE054611E000BF43
:100D700000F0CEFE401B02280BD9A06A40F0100004
:100D8000A062E06A40F00100E06284F82460012083
:100D9000F8BD20688068C043C007E9D10020F8BDD5
:100DA000DC01002040420F0000228154521C402AE6
:100DB000FBDB7047FEE70000054910B500204860E6
:100DC00000F0A6F800F006F8BDE8104000F086B884
:100DD000000000202DE9F041104D002427462C8012
:100DE0006C80AC60EC606C61AC612C61FFF79EF9CB
:100DF000804600266C6100F049F800F057F86869F9
:100E0000761C36040744360CF4D0C5E90474404619
:100E1000AC61BDE8F041FFF78DB900000000002093
:100E200003490969884201D9401A70470020704778
:100E30000000002010B5FFF779F904494C69FFF76D
:100E400079F92046BDE81040FFF7EABF0000002016
:100E500010B5FFF7EFFF0446FFF768F9034A0021DA
:100E60005161FFF767F9204610BD00000000002027
:100E700010B5FFF75BF904498C69FFF75BF9204671
:100E8000BDE81040FFF7CCBF0000002010B5064CB5
:100E90002088401C2080608810B900F051F8A060C4
:100EA0006088401C608010BD0000002010B50A4C16
:100EB0006088401E0004000C60800CD100F040F8F7
:100EC000E060A168401A6169814200D26061A16955
:100ED000814200D2A06110BD0000002010B5FFF7D4
:100EE00025F90446FFF7D2FF1021054801F033FE33
:100EF000FFF7DCFF2046BDE81040FFF71BB90000FC
:100F000044030020014948607047000000000020B1
:100F100010B501F01DFA08490A6842F080720A60B3
:100F2000064900224A600A6842F001020A60BDE8F0
:100F30001040FFF7E7BF0000FCED00E0001000E00C
:100F40000148406870470000001000E00020704732
:100F5000002070470548064AD0F8B81200200B5C04
:100F60001354401C4028FADB002070472039002031
:100F7000442A0020014800F0C1BB00009C3800203A
:100F800030B590F840500124AC40C56B6C600468EB
:100F900063604368102B036803D099600068C260E7
:100FA00030BD9A600068C16030BD70477047F0B5D1
:100FB00015461E460F460446A84202D9D0B2254621
:100FC0000446E0B23246394601F03AFE641CA4B24F
:100FD000A542F6D2F0BD00002DE9FC4F05460B9866
:100FE000984691460C4600286FD0322800D932200E
:100FF0004608871BA9EB05037F1EA8EB04024FF0F0
:10100000FF30002B02DD4FF0010B01E005DA8346D3
:10101000002A12DD4FF0010010E0AE1B00D50026C3
:1010200005EB070508F0FF02E1B2B0B20C9B00F03F
:1010300077F8AE4272DA761CF4E70BDA82460BFBE5
:1010400003F150434A00019242000092814239DB91
:10105000501A1FE0A61B00D500263C441FFA89F257
:10106000F1B2A8B20C9BFFF7A2FFA64256DA761C9B
:10107000F4E7002800DA0020E119CAB2C1B2A8B230
:101080000C9B00F04DF85D44B8F1000F04DA0099B4
:1010900008EB0100804604E0DDE90001411A8844C4
:1010A00054444D45A4EB0600E3D1002800DA0020AB
:1010B000E119CAB20C9BC1B202B0A8B2BDE8F04FB0
:1010C00000F02EB80199081A10E027E0002800DA95
:1010D0000020E9198AB2E1B280B20C9BFFF767FFEA
:1010E0005444B9F1000F03DA01984844814604E002
:1010F000DDE90010411A89445D444445A5EB060032
:10110000E4D1002800DA0020E9190C9B8AB202B071
:10111000E1B2BDE8F04F80B2FFF749BFBDE8FC8FF8
:10112000F0B515461F4606460C46A94201D90D46A4
:101130001446F0B23A46214601F082FD641CE4B246
:10114000A542F6D2F0BD00002DE9F047DFF89090FF
:1011500000246FF00E076FF0070A09F5007800BF52
:1011600059F8241008B20E14FFF7C6FB0821FFF748
:10117000A0FB3946FFF79DFB05463046FFF7BCFB59
:101180000821FFF796FB3946FFF793FB0146FFF76F
:101190005EFB064629460846FFF759FB3146FFF736
:1011A000FEFAFFF7C6FB06F0F5FA5246FFF78DFB95
:1011B000FFF7D2FB64B11021FFF77BFBFFF7A5FB24
:1011C00048F82400641CA4B2802CC9D3BDE8F08781
:1011D0000F21FFF76EFBFFF798FBC8F80000F1E75F
:1011E000C4250020F8B50024009490F8242025465A
:1011F000012A12D0012280F824204A681F23072ADE
:101200000DD20668776B521E02EB820293409F4319
:101210000B6893401F43776319E00220F8BD06680E
:101220000D2A0AD2376BD21F02EB820293409F43F2
:101230000B6893401F43376309E0F76A0D3A02EBEE
:10124000820293409F430B6893401F43F7620A68F2
:10125000072306680A2A0AD3F7680A3A02EB420211
:1012600093409F438B6893401F43F76008E03769C2
:1012700002EB420293409F438B6893401F433761C8
:101280000A68102A01D0112A20D1124B02689A4212
:1012900017D193681B0219D4936843F40003936039
:1012A0000968102912D10C490C4A0968B1FBF2F106
:1012B00001EB8101490000E0491E00910029FBD1AA
:1012C00004E0816A41F020018162012480F8245009
:1012D0002046F8BD00240140DC01002040420F0000
:1012E00070B5FEF723FF0546FFF7D0FD0024284820
:1012F00000F0BAF92748284930F82420A2F5006206
:10130000120441F82420641CA4B2FF2CF4D94FF439
:101310008074224620492148FEF71EFFFFF714FF84
:101320001F4820490078012810D11F4B5888401CC5
:1013300080B25880962809D9002058800878401C2F
:10134000C0B20870042801D901200870087801286B
:1013500006D0022807D0032808D004280BD108E0C3
:1013600005F0E4FB07E005F02BFC04E005F064FC6D
:1013700001E005F0B1FCFFF799FD2846FEF7DAFE23
:101380002246BDE870400349014800F0E7B800007C
:101390006C380020C41D0020C4210020C42500207A
:1013A00036010020350100203801002070477047C9
:1013B0002DE9F0414FF0000704003D467ED0A06AC1
:1013C000002628B9E66284F82460204600F07EF802
:1013D0002046FFF751FCA16A01F01001014304D03F
:1013E000A06A40F01000A06268E0A16A21F4885170
:1013F00041F00201A1626268E169237B0A4347EA86
:1014000043010A43A1684FF48077B94208D001290B
:1014100006D0002194F814C0BCF1010F02D00AE0FC
:101420003946F7E7F3B1A36A43F02003A362E36A06
:1014300043F00103E3622368D3F804C02CF4694C41
:101440004CEA010CC3F804C023689968DFF870C047
:1014500001EA0C0111439960A168B9420BD001293E
:1014600009D00CE0DFF85CC0A3690CEB43330B43FD
:1014700043F40061DFE7218A0D05A5F58015216899
:10148000CB6A23F470032B43CB62216889680E4B2F
:101490001940914208D1E662A16A21F0020141F0AF
:1014A0000101A162BDE8F081A06A20F0020040F0D5
:1014B0001000A062E06A40F00100E0620120F1E764
:1014C000FDF7E1FF00E0FFFFFE0E1FFF70B586B0E5
:1014D00000250646009501950295039500681A4976
:1014E00088422ED11949886940F400708861886962
:1014F00000F400700490886940F0040088618869F5
:10150000694600F00400049002200090032001903E
:101510000F4800F003FA104C0E48C4E90005802083
:10152000C4E9025080002061800060612020C4E98D
:101530000605204600F08CF908B1FFF737FD34624C
:10154000666206B070BD0000002401400010024039
:1015500000080140080002409C3800202DE9F047B7
:10156000894604463B4900683B4F0E1D9046884221
:1015700001D0B84207D1306810F4702F03D0012594
:101580002846BDE8F08794F8240001280CD00120FB
:1015900084F824002046FFF7CFFB05004FF0000041
:1015A00004D084F82400EBE70220EAE7A16A40F6C1
:1015B0000162914341F48071A1622168B94218D15E
:1015C000326812F4702F14D0A16A41F48011A16224
:1015D0003168490505D5A16A21F4005141F48051D3
:1015E000A162A16AC9040AD5E16A21F00601E1629B
:1015F00006E0A26A22F48012A2624968E9E7E0628A
:1016000084F82400216A15488862216A1448C86257
:10161000216A1448086321686FF00200086020689E
:10162000816841F480718160216843464A464C31AB
:10163000206A00F03BF920688168C1F34241072924
:10164000816803D041F48011816099E741F4A001E1
:10165000FAE700000024014000280140C50C000802
:101660002D0D0008130D000810B5044690F8240055
:10167000012807D0012084F824002046FFF7FCFA57
:1016800010B10EE0022010BD2068816821F4807145
:101690008160206A00F00EF8A16A30B141F040018B
:1016A000A162002184F8241010BD21F4885141F07A
:1016B0000101F5E710B590F821100022022905D0AC
:1016C0000421816380F82020012010BD01680B688F
:1016D00023F00E030B6001680B6823F001030B601D
:1016E00090F84030C46B012101FA03F3636080F885
:1016F000211080F82020104610BD00002DE9F05F79
:10170000C16B0C6801680B68D0F840C0042202FA73
:101710000CF2494DDFF824A1494E4A4FDFF828B1B9
:10172000DFF828E122422CD05A072AD50A6892060F
:1017300003D40A6822F004020A600168A94201D1B8
:10174000042219E0514501D1402215E0B14202D1F5
:101750004FF4806210E0B94202D14FF480420BE0B6
:10176000594502D14FF4802206E0714502D14FF471
:10177000800201E04FF080622F4908394A60C16A57
:101780003BE04FF0020808FA0CF818EA040F4FF09B
:1017900000094FF0010235D05FEA837832D50B683B
:1017A0009B0605D40B6823F00A030B6080F8212008
:1017B0000168A94201D1022219E0514501D120223C
:1017C00015E0B14202D14FF4007210E0B94202D1EB
:1017D0004FF400520BE0594502D14FF4003206E0BD
:1017E000714502D14FF4001201E04FF0007212492E
:1017F00008394A6080F82090816A00291AD0BDE833
:10180000F05F0847082505FA0CF5254212D01B07A2
:1018100010D50B6823F00E030B6090F84010C36BDB
:1018200002FA01F15960826380F8212080F820904B
:10183000016BE2E7BDE8F09F080002401C00024097
:101840003000024044000240580002406C00024058
:1018500030B528B308C8134914221944B1FBF2F17A
:101860008900C16310498163022141771A6843F6F8
:10187000F0718A43D0E900142143D0E902452C439A
:10188000214304692143446921438469214311436D
:10189000196000214163012242770177084630BD7B
:1018A000012030BDF8FFFDBF0000024070B50446C6
:1018B00090F82000002501280CD0012084F8200099
:1018C00094F821600020012E06D084F82000022523
:1018D000284670BD022070BD022684F82160A063F6
:1018E0002068066826F0010606602046FFF748FBE0
:1018F000E06A00282068016802D041F00E0106E08D
:1019000021F0040101602068016841F00A010160D2
:101910002068016841F001010160D9E72DE9F84F25
:10192000DFF8B891002409F1040A0AF1040B2346F8
:101930000F270BF1040EC9E00125A5402A40AA4259
:101940007DD1674ED1F804C0ACEB0608B44532D067
:1019500014DCBCF1030F3AD009DCBCF1000F2AD033
:10196000BCF1010F1CD0BCF1020F31D11DE0BCF164
:10197000110F17D0BCF1120F2AD119E0B8F5881F4A
:1019800019D006DCB8F5803F15D0B8F5801F1FD1FF
:1019900011E0B8F5001F0ED0B8F5041F18D10AE009
:1019A000CB6815E0CB681B1D12E0CB6808330FE055
:1019B000CB680C330CE08B682BB1012B4FF0080384
:1019C00003D0456104E0042302E0056100E0002348
:1019D000FF2A01D8064601E000F104064FEA84051B
:1019E00001D9A5F12005D6F8008007FA05FC28EA00
:1019F0000C0803FA05F548EA0508C6F800804D68AA
:101A0000ED0062D5374DAE6946F00106AE61AD69B5
:101A100024F0030605F001050095334D06EB050C97
:101A2000DCF80850A607360F07FA06F825EA08057D
:101A3000DFF8B880404503D14FF0000817E044E0DC
:101A4000DFF8AC80404502D14FF001080FE0DFF82D
:101A5000A480404502D14FF0020808E0DFF89880EA
:101A6000404502D14FF0030801E04FF0040808FAA6
:101A700006F848EA0508CCF808804D68D9F80060F7
:101A8000ED034D4601D5164300E096432E604D68A8
:101A9000DAF80060AD03554601D5164300E09643E1
:101AA0002E604D68DBF80060ED025D4601D51643FF
:101AB00000E096432E604D68DEF80060AD0275468A
:101AC00001D5164300E096432E60641C0D682A463B
:101AD000E5407FF431AFBDE8F88F0000000401401D
:101AE00000001110001002400000014000080140F9
:101AF000000C0140001001400014014080680840C3
:101B000000D0012070470AB1016170470904FBE76A
:101B10000148806870470000D0010020074810B5D8
:101B2000016841F010010160032000F075F8002009
:101B300000F006F800F024F8002010BD002002405C
:101B400070B50D4D04464FF47A712878B1FBF0F072
:101B50000A490968B1FBF0F000F0C6FD48B9102C45
:101B600007D200222146501E00F036F800206C609B
:101B700070BD012070BD0000D0010020DC010020FC
:101B80000C4808B5816941F001018161816901F06A
:101B900001010091C16941F08051C161C06900F04B
:101BA000805000900448416821F0E06141F080617C
:101BB000416008BD0010024000000140002809DB20
:101BC00000F01F02012191404009800000F1E02057
:101BD000C0F8001170470000F0B40E4B1B680C46B3
:101BE000C3F30223C3F10705042D00D90425191DF1
:101BF000072901D2002300E0DB1E012606FA05F1C9
:101C0000491E214099409E40761E16403143F0BC4B
:101C100004F066BF0CED00E0064900F0070208681A
:101C20004FF6FF03184040EA0220034A10430860C1
:101C3000704700000CED00E00000FA0510B50C063E
:101C400005D501F0070100EB4110283003E000EB5F
:101C5000411000F5947099B232B1012202730181F2
:101C6000190C4181002010BD00220273C180F9E7E8
:101C7000704700EB4112D0F86802D26B04F08BB8C9
:101C800000EB4112D0F86802D2F83C2104F0E6B82B
:101C900070B504460B0601F0070004EB40114FF04D
:101CA00001024FF0000503D581F82920283103E017
:101CB00081F8295101F59471087094F828020128DF
:101CC00008D084F82822206804F001FD84F8285206
:101CD000002070BD022070BD70B5044601F00F00F9
:101CE0006268904201D9012070BD0B0601F0070027
:101CF00004EB40114FF001024FF0000503D581F8CD
:101D00002920283103E081F8295101F594718D7063
:101D1000087094F82802012808D084F82822206846
:101D200004F078FD84F82852002070BD022070BDB8
:101D30002DE9F04104460F0601F0070004EB4011C5
:101D40004FF001064FF0000503D581F829602831D6
:101D500003E081F8295101F5947108700A61CB7094
:101D60004A7802B1C881022B00D10D7194F8280283
:101D7000012809D084F82862206804F073FB284603
:101D800084F82852BDE8F0810220FBE770B50C46CC
:101D900001F0070500EB4511C1E94F230022C1F80E
:101DA000442181F8292181F8285101F594716207B5
:101DB000006804F084FD002070BD70B504460D4637
:101DC00001F007006168884201D9012070BD290631
:101DD0004FF000064FF0010205D504EB401181F8E9
:101DE0002920283105E004EB451181F8296101F52E
:101DF00094718A70087094F82802012807D084F83A
:101E00002822206804F042FD680702D006E0022084
:101E100070BD04F50C71206804F0FAFC84F82862A7
:101E2000002070BD70B50C4601F0070500EB4511B0
:101E3000C1E90F2300224A64012281F8292001F818
:101E4000285F6207006804F03AFD002070BD10B5FD
:101E50000446006804F00EFE000402D5204603F09C
:101E600081FA206804F006FE40050CD5206830F8A1
:101E7000441F21F480610180204600F0FBF800211E
:101E8000204600F012F9206804F0F4FD400405D566
:101E9000206830F8441F21F480410180206804F05C
:101EA000E9FD800405D5206830F8441F21F4005175
:101EB0000180206804F0DEFDC00414D5206830F8ED
:101EC000401F21F004010180206830F8401F21F0FC
:101ED00008010180204600F0E0F8206830F8441F37
:101EE00021F480510180206804F0C4FD00051FD555
:101EF000206830F8401F41F008010180206830F868
:101F0000441F21F400610180206830F8401F41F037
:101F100004010180206804F0ADFDC00405D52068EF
:101F200030F8441F21F480510180204600F0F2F87F
:101F3000206804F09FFD800508D5206830F8441F14
:101F400021F400710180204600F0ABF8206804F015
:101F500091FDC00505D5206830F8441F21F480713B
:101F6000018010BD2DE9F04186B0040004D094F842
:101F70002902002520B108E0012006B0BDE8F0816B
:101F800084F82852204600F057F8032084F82902EC
:101F9000206804F036FC04F11001142288466846DB
:101FA000FEF7D9FB94E80F0004F08FFB0227B0BBCB
:101FB0000021206804F078FD002001260DE000BF1C
:101FC00004EB401181F8296001F8280FC881CD7019
:101FD0000D614D61401CC0B28D6161688142EFD8D6
:101FE00000200FE004EB401181F8295181F828010D
:101FF00081F82B51C1F83851C1F83C51401CC0B296
:10200000C1F8405161688142ECD8142241466846CB
:10201000FEF7A1FB94E80F0004F0E4FB10B184F894
:102020002972A9E784F8245084F82962206804F012
:10203000D7FB0020A1E7000008B500680B498842E3
:1020400012D10B48C16941F40001C161C06900228D
:1020500000F40000009011461420FFF7BDFDBDE81C
:1020600008401420FFF7AABD08BD0000005C004036
:102070000010024070B5044680680125022801D096
:10208000FEF794FF2946D4F8680203F0C2FFD4F8A3
:102090006802BDE8704003F07EBFD0F8680203F02C
:1020A000A2BFD0F8680203F0A8BF10B5044690F8AC
:1020B000280201280BD0012084F8280284F824107B
:1020C000206804F0F3FC002084F8280210BD0220F0
:1020D00010BDD0F8682200F50C71104603F0A5BFC2
:1020E00010B5044690F82802012810D0012084F889
:1020F000280201462046FFF7BBFD206804F06EFB76
:10210000206804F0AAFC002084F8280210BD0220F8
:1021100010BD000010B50446D0F8680203F0C4FFFB
:10212000A069002804D00348016841F0060101605D
:1021300010BD000010ED00E02DE9F84305460078E1
:10214000354CC00754D0E0690026C00008D4E069CF
:1021500040F08050E061E069012600F0805000907E
:102160002E480168C90512D40168804641F4807187
:102170000160FFF7CDFC074605E000BFFFF7C8FC94
:10218000C01B642823D8D8F80000C005F6D5206A03
:1021900010F4407021D0A98801F4407181421CD014
:1021A000206A1F49012220F440700A6000220A6060
:1021B0002062C00711D0FFF7ABFC074641F2883818
:1021C00008E000BFFFF7A4FCC11B414502D9032072
:1021D000BDE8F883206A8007F4D5206A696820F496
:1021E0004070084320621EB1E06920F08050E06139
:1021F0002878800705D56068A96820F44040084326
:1022000060602878C00605D56068E96820F4800021
:10221000084360600020DBE70010024000700040CF
:10222000400442422DE9F0470F46050061D0434E7D
:10223000306800F00700B84209D2306820F007008B
:1022400038433060306800F00700B84251D1286848
:102250003B4C810712D5400703D5606840F4E0602D
:1022600060602878000703D5606840F460506060C3
:102270006068A96820F0F000084360602878C00713
:1022800028D06868012810D02168022810D089075A
:1022900000292EDA616821F0030101436160FFF734
:1022A00037FC804641F288390DE021688903EFE769
:1022B0008901EDE7FFF72CFCA0EB0801494502D9A5
:1022C0000320BDE8F0876068696800F00C00B0EB9F
:1022D000810FEFD1306800F00700B8420BD93068A9
:1022E00020F0070038433060306800F00700B84243
:1022F00001D00120E5E72878400705D56068E96846
:1023000020F4E060084360602878000706D5606824
:10231000296920F4605040EAC100606000F01EF8B6
:102320006168084AC1F30311515CC840064908605E
:1023300006480068FFF704FC0020C2E700200240C6
:1023400000100240E2A20008DC010020D4010020BD
:102350000148006870470000DC01002012A185B030
:102360000FC98DE80F0014A0144A0068049051684A
:10237000134801F00C03042B10D0082B0ED1C1F32D
:102380008343C9031DF803000AD5516804AAC1F3A9
:102390004041515C0A4A5043B0FBF1F005B0704730
:1023A00008494843FAE70000020304050607080944
:1023B0000A0B0C0D0E0F101001020000001002405D
:1023C00000127A0000093D002DE9F84F040070D09A
:1023D0002078C04DC00749D06868C0F3810001284B
:1023E00007D06868C0F38100022809D16868C0037B
:1023F00006D52868800339D560680028E7D035E025
:102400006068B0F5803F0BD010B1B0F5A02F11D0AF
:10241000286820F480302860286820F4802002E0BA
:10242000286840F480302860606890B1FFF770FB46
:1024300006460AE0286840F480202860F0E700BFE4
:10244000FFF766FB801B642873D828688003F7D5E4
:102450000CE0FFF75DFB064605E000BFFFF758FB09
:10246000801B6428F0D828688003F7D420789A4E1F
:1024700080074FF001094FF0000839D5686810F067
:102480000C0F07D06868C0F38100022809D1686882
:10249000C00306D42868800714D52069012808D114
:1024A00010E02069B0B1C6F80090FFF731FB074695
:1024B00005E00AE1FFF72CFBC01B0228C4D82868FE
:1024C0008007F7D52868616920F0F80040EAC1006C
:1024D00028600DE0C6F80080FFF71AFB074604E00D
:1024E000FFF716FBC01B022823D828688007F7D403
:1024F000207800072CD57948A169D9B1C0F800909F
:10250000FFF706FB074604E0FFF702FBC01B0228AB
:102510000FD8686A8007F7D571484FF4FA51006800
:10252000B0FBF1F0009000BF0098411E0091FAD27C
:102530000EE080E0C0F80080FFF7EAFA074604E00A
:10254000FFF7E6FAC01B022875D8686A8007F7D43F
:102550002078400760D5E8690027C00008D4E86902
:1025600040F08050E861E869012700F08050009059
:102570005C480168C90513D40168834641F4807141
:102580000160FFF7C5FA824606E000BFFFF7C0FA18
:10259000A0EB0A0064284ED8DBF80000C005F5D592
:1025A000E06801280AD008B1052813D0286A20F075
:1025B00001002862286A20F0040002E0286A40F046
:1025C00001002862E06841F2883B98B1FFF7A0FA69
:1025D00082460BE0286A40F004002862EEE700BF64
:1025E000FFF796FAA0EB0A0159455AD8286A8007E6
:1025F000F6D50CE0FFF78CFA824605E0FFF788FA83
:10260000A0EB0A0159454CD8286A8007F6D41FB1BF
:10261000E86920F08050E861E06988B36968C1F337
:102620008101022944D00228C6F8608004D0FFF757
:102630006FFA044638E034E0FFF76AFA074604E030
:10264000FFF766FAC01B02282BD828688001F7D450
:10265000206AB0F5803F05D16868A16820F4003099
:1026600008436860D4E908010843696821F47411DB
:1026700008436860C6F86090FFF74AFA044606E02F
:1026800025E000BFFFF744FA001B022809D828689C
:102690008001F7D51BE000BFFFF73AFA001B0228C4
:1026A00002D90320BDE8F88F28688001F4D40EE039
:1026B0000128F7D06868226A00F48031914204D181
:1026C000616A00F47010884201D00120EAE700201E
:1026D000E8E700000010024000004242800442424D
:1026E000DC0100200070004010B5401EB0F1807F7A
:1026F00001D3012010BD4FF0E02460610F2160176D
:1027000004F0EEF90020A06107202061002010BD38
:1027100070B590F83C20012A19D0012400F83C4FF4
:102720000222427050F83C3C5A689D6822F07006C4
:102730000A684968324325F0800529435A6050F8F9
:102740003C2C9160447000210170084670BD02204D
:1027500070BD10B5040003D094F83D0010B107E03F
:10276000012010BD002084F83C00204600F00CF849
:10277000022084F83D00211D206802F0C3FF0120E3
:1027800084F83D00002010BD08B500680649884265
:1027900008D10648C16941F00201C161C06900F079
:1027A0000200009008BD000000040040001002403C
:1027B000022180F83D1001688A6802F00702062AAB
:1027C00003D00A6842F001020A60012180F83D103E
:1027D00000207047022180F83D1001680A6A41F22A
:1027E00011131A4207D10A6A9B101A4203D10A68D0
:1027F00022F001020A60012180F83D10002070479C
:1028000070B5044690F83C00012817D0012584F8E3
:102810003C50022084F83D002068826822F0770254
:1028200022F47F4282600868502830D00DDC2028D6
:102830004DD005DC98B310283BD148E0022070BD94
:10284000302844D0402834D139E0602828D070287E
:1028500006D0B0F5805F2CD0B0F5005F29D10AE03A
:10286000CB68D1E90121206802F082FF20688168ED
:1028700041F0770109E0CB68D1E90121206802F03D
:1028800077FF2068816841F48041816011E0CA6867
:102890004968206802F07EFF5021206807E016E0BA
:1028A000CA684968206802F086FF6021206802F04B
:1028B00069FF84F83D50002084F83C0070BDCA6870
:1028C0004968206802F066FF40212068EFE722682F
:1028D00001461046EBE7FEE710B521483021012202
:1028E00000681023032480F82A100F2180F82B1091
:1028F0000A2100F82C1F42700222827040F2E3721B
:102900004260C0E902310622002182610161C0E912
:10291000074140F61F1181622321C1622E2101630C
:1029200040F20C614163562181637C21C16343F60F
:1029300019510164E72141644FF47A71B1FBF3F35B
:10294000436163212C38632B00D901644FF49673E3
:10295000B3FBF2F20265632A00D9016510BD0000E5
:10296000DC000020F0B500230A24302537261F465E
:1029700011E000BFB4EB107F02D905EB107C01E041
:1029800006EB107C01F813C001EB430C00015B1C4B
:102990008CF80170DBB29342ECD3F0BD3EB500245D
:1029A00010480094019402940D49846001600473FE
:1029B0000475012505614FF400214460C161FEF7F3
:1029C000F7FC08B1FEF7F2FA0095CDE9015469462B
:1029D0000448FEF707FC002801D0FEF7E7FA3EBDE9
:1029E000002401406C380020094808B5416941F0D5
:1029F000010141614069002200F001000090114690
:102A00000B20FFF7E9F8BDE808400B20FFF7D6B828
:102A10000010024070B586B000241C480094019458
:102A200002940394816941F010018161816901F090
:102A300010010491816941F020018161816901F0F7
:102A400020010491816941F0040181618069104E87
:102A500000F004004FF4005504900022294630464F
:102A6000FFF751F80220CDE90240009501256946A3
:102A700001953046FEF752FFCDE9005469460548FE
:102A80000295FEF74BFF06B070BD0000001002403B
:102A9000001001400008014010B586B0002417481E
:102AA00000940194029403940494134905940160E2
:102AB0004821C0E901146421C0E903148461FFF7CF
:102AC00048FE08B1FEF772FA4FF480500090694654
:102AD0000A48FFF795FE08B1FEF768FA2020CDE915
:102AE000040404A90548FFF713FE002801D0FEF7EF
:102AF0005DFA06B010BD000000040040E038002080
:102B000010B500220F49104803F008F908B1FEF78C
:102B10004DFA0E490C4803F0EDFA08B1FEF746FAFB
:102B20000B49094802F0E8FE08B1FEF73FFA0648F3
:102B300003F036FB002803D0BDE81040FEF736BA9C
:102B400010BD00004C01002020390020E4010020CD
:102B5000C0010020FEE70A46002100F001B8000095
:102B600010B5002A21D000281FD000244FEA04030A
:102B70005B1C41EA0424042BFAD310F0030305D1B3
:102B80000BE000BF521E00F8011B5B1C002A0CD09A
:102B9000042BF7D301E010C0121F042AFBD202E07D
:102BA00000F8011B521E002AFAD110BD7047000028
:102BB00030B40021084B0A465FF0000003EBC0046C
:102BC000401CC0B262548028F8D3491CC9B20829FD
:102BD000F2D330BC00F01AB950190020CA0801F035
:102BE000070301219940044B03EBC003985C61EAA1
:102BF0000000C043985470475019002030B101289C
:102C000007D100215FF0A70000F0CABA0021A6207A
:102C1000FAE7704710B558B1012810D10021C02043
:102C200000F0BEFA0021A020BDE8104000F0B8BAC4
:102C30000021C82000F0B4FA0021A120F4E710BD63
:102C400010B5832811D83F290FD8CB0801F0070110
:102C500001248C40E1B2054C002A04EBC000C25CA8
:102C600001D00A4300E08A43C25410BD501900202D
:102C7000F0B587B0554800240494816941F00801FB
:102C800081618069524E00F0080000904BF2020012
:102C90000290012003900220059002A93046FEF721
:102CA0003DFE0122570339463046FEF72CFF002235
:102CB00006AD642311461046CDE9004501F0EAF85F
:102CC000002239463046FEF71EFF0022C823114677
:102CD0001046CDE9004501F0DDF8012239463046C5
:102CE000FEF711FF0021AE2000F05AFA002108463D
:102CF00000F056FA0021102000F052FA0021402086
:102D000000F04EFA0021812000F04AFA0021CF2085
:102D100000F046FA0021A12000F042FA0021C8206C
:102D200000F03EFA0021A62000F03AFA0021A82087
:102D300000F036FA00213F2000F032FA0021D320C3
:102D400000F02EFA0021084600F02AFA0021D520D2
:102D500000F026FA0021802000F022FA0021D9207C
:102D600000F01EFA0021F12000F01AFA0021DA200A
:102D700000F016FA0021122000F012FA0021DB20E8
:102D800000F00EFA0021402000F00AFA0021202075
:102D900000F006FA0021022000F002FA00218D2046
:102DA00000F0FEF90021142000F0FAF90021A4201F
:102DB00000F0F6F90021A62000F0F2F90021AF2082
:102DC00000F0EEF9FFF7F4FE07B0F0BD001002408E
:102DD000000C014010B50021074B0A465FF00000CF
:102DE00003EBC004401CC0B262548028F8D3491CD5
:102DF000C9B20829F2D310BD5019002002460120A3
:102E000000E05043491EC9B2FBD270472DE9F041A2
:102E1000FDF78CF90746FEF739F8144E002400BF81
:102E200004F1B000C0B2002100F0BAF90021084658
:102E300000F0B6F90021102000F0B2F95FF00005B3
:102E400006EBC5000121005D00F0AAF96D1CEDB292
:102E5000802DF5D3641CE4B2082CE1D3FEF726F8EC
:102E60003846BDE8F041FDF765B900005019002073
:102E70002DE9FF4F1C460E468946580700D0012019
:102E800000EBD40061084843203A00F0FF0A02F04A
:102E9000FF0B002544E00C2C18D0102C1AD0182C55
:102EA0001CD0202C3ED1204901EB8B102844A0F5EA
:102EB000805090F8007C00BF4FF00008380614D511
:102EC000012231460098FFF7BBFE12E00BEB4B00EE
:102ED000164906E0164901EB0B1004E015490BEB0F
:102EE000CB0001EB8000475DE6E731460098FFF735
:102EF00075FE7806761C070EF6B2A6EB0900A04216
:102F000005D100984E46401CC0B2009006E008F182
:102F1000010000F0FF08B8F1080FCFD36D1CEDB22F
:102F20005545B8D3BDE8FF8F4A9400085A7C000885
:102F3000CE800008EE8600082DE9FF4F83B0814661
:102F40000020CDE901091C4688468B464FEAD30A8A
:102F50004CE005980199604301EBD000C0B20090AD
:102F6000481CC0B2002501903EE0102C11D0182C56
:102F700014D0202C3FD12149009801EB40100027AC
:102F8000465DF00712D0012241464846FFF758FE41
:102F900010E01B49009801EB0010F0E7009817497A
:102FA00000EBC000D83901EBC000E8E741464846D5
:102FB000FFF714FE7F1C760808F10100FFB200F055
:102FC000FF08082FDDD309F10100029900F0FF0985
:102FD000A9EB0100A04204D10BF10800894600F0E2
:102FE000FF0B6D1CD846EDB2A542BED3BAF101016C
:102FF00001F0FF0AADD207B0BDE8F08F629D000876
:103000000A9700082DE9F04F0024DDF824801D46C2
:1030100091468B4682460A274FEA580616E0281B3F
:10302000401EC1B20A20FFF7E9FEB9FBF0F0B0FB89
:10303000F7F107FB11003030C2B206FB04A0C0B2AA
:1030400043465946FFF714FF641CE4B2AC42E6D392
:10305000BDE8F08F2DE9F04F0126DDF824901D46E4
:1030600092468B46804600244FEA590727E0281BEA
:10307000401EC1B20A20FFF7C1FEBAFBF0F10A22DE
:10308000B1FBF2F002FB101068B9012E0BD1691EE2
:103090008C4208D007FB0480C0B24B462022594620
:1030A000FFF7E6FE09E03030C2B207FB0480C0B291
:1030B0004B465946FFF7DCFE0026641CE4B2AC42E6
:1030C000D5D3BDE8F08F2DE9F04F0024DDF824A022
:1030D0001D4690468B4681460A274FEA5A0617E05E
:1030E000281B401EC1B20A20FFF788FEB8FBF0F093
:1030F000B0FBF7F107FB11003030C2B206FB0490C1
:10310000641C2044C0B253465946FFF7B1FEE4B2F6
:10311000AC42E5D3BDE8F08F2DE9F0411E461546DF
:1031200088460446C3F180070FE0334641462046F7
:10313000FFF79EFE04EB5600C4B2A74204DA08F182
:103140000200002400F0FF086D1C2A78A2F1200084
:103150005E28EAD9BDE8F0812DE9F0431F46164606
:10316000894604460125C3F1800812E06019C0B207
:103170003B464946FFF77CFE6D1C04EB5700C4B28A
:10318000EDB2A04504DA09EB0700002400F0FF09C6
:10319000761C3278A2F120005E28E7D9BDE8F083E2
:1031A0002DE9F041174E05464FF4004809B10122C0
:1031B00000E0002241463046FEF7A5FC00244FF413
:1031C0008057002202213046FEF79DFC280601D5DB
:1031D000012200E0002239463046FEF794FC01222D
:1031E00002213046FEF78FFC6806641C050EE4B22F
:1031F000082CE6D341463046BDE8F0410122FEF7F7
:1032000082BC0000000C01407047000002480068CA
:10321000002800D0004770472C00002010B504465D
:1032200000F0B8F8434800210A22017042480170BA
:1032300042480170424801604248016042480170C2
:1032400042480170424801704248016042480160B2
:10325000424801604248017042480068B0FBF2F009
:10326000414A1060414A106830B14148006818B1C5
:10327000126802C0521EFCD13E4801603E48016007
:103280003E4801603E4801603E4801603E480160A2
:103290003E4801603E48017001F0CAF801F0FAF8BA
:1032A000204600F0BFFE2088002841D1204600F0D3
:1032B00013FF208800283BD1204600F019FF20880A
:1032C000002835D1204600F069FF208800282FD142
:1032D000204601F0D3F82088002829D1204601F0AB
:1032E000DDF92088002823D1204601F0A7FB2088A3
:1032F00000281DD1204600F0BBFE2088002817D1F1
:10330000204601F081FE2088002811D1204601F0DE
:10331000F3FA208800280BD1204601F0C9FE20884E
:10332000002805D100F07CFEBDE81040FFF76CBF1F
:1033300010BD000040000020480000207C0000205C
:10334000D0000020D4000020620000206300002094
:10335000640000207000002074000020780000202D
:1033600084000020307C0008800000200C7C0008D5
:10337000087C0008200000202400002028000020F5
:103380002C000020300000203400002038000020F5
:10339000B200002030B5094B0020094A04461968E4
:1033A00001E010C1401C1568A842FAD3186805490D
:1033B00000EB8500001F086030BD0000087C00089D
:1033C0000C7C0008D80000201A4810B500780128AD
:1033D0002FD1FCF7ABFE184A0446117829B1491EDB
:1033E00011F0FF00107022D103E0BDE81040FCF79F
:1033F000A1BE12480078D0B901F008F81049087051
:10340000104900EB400051F820100F4801600F48B0
:10341000006881420BD051F8900F401C08600C48A6
:103420000168491C01600B494FF08050086020463C
:10343000DBE710BD48000020400000207C00002099
:103440006300002078150020D4000020D000002068
:10345000A800002004ED00E0164810B50078002810
:1034600026D115480078002822D1FCF75FFE0446DB
:1034700000F0CCFF11490870114900EB400051F8F1
:103480002000104908601049096888420BD050F8A4
:10349000901F491C01600D480168491C01600C49DE
:1034A0004FF0805008602046BDE81040FCF742BE57
:1034B00010BD0000400000207C00002063000020C0
:1034C00078150020D4000020D0000020A8000020A3
:1034D00004ED00E070B504461248007810B146F6DD
:1034E00062501DE010480078012802D045F689603E
:1034F00016E00E4D2878FA2802D345F209200FE095
:10350000FCF714FE0646FDF7C1FC2878401C287025
:1035100001F064F8FDF7CAFC3046FCF70BFE002012
:10352000208070BD40000020480000207C0000206A
:103530002DE9F04116460C460546FCF7F7FD074617
:10354000FDF7A4FC29460D480025012901D005708E
:1035500001E0012101700A480CB1046005E009494D
:103560000A220968B1FBF2F10160FDF79FFC3846C1
:10357000FCF7E0FD3580BDE8F0810000840000200C
:1035800080000020307C000870B5044618480078A0
:1035900010B146F6655029E016480078012802D09F
:1035A00045F6896022E0144D287890B1FCF7BEFD05
:1035B0000646FDF76BFC2878401E10F0FF002870CF
:1035C0000AD0FDF773FC3046FCF7B4FD46F66350B5
:1035D0000CE046F6645009E001F00EF8FDF766FCD9
:1035E0003046FCF7A7FDFFF737FF0020208070BDB5
:1035F00040000020480000207C00002070B50F4DE6
:103600000446287818B145F68A60208070BD00F025
:10361000FDFE0B4908700B4908700B4900EB400098
:1036200051F8200009490860094908600120287004
:10363000FDF7E0FA43F69920E7E700004800002094
:10364000630000206200002078150020D4000020D4
:10365000D00000202DE9F0410646FCF767FD054645
:10366000FDF714FC2C48002404802C4804602C48EE
:1036700004602C4804602C4804602C4804602C48EA
:103680000481FDF713FC2846FCF754FDFCF74EFDC2
:103690000746FDF7FBFB2748056818E0FCF746FDE9
:1036A0000746FDF7F3FBC5F8B440C5F8B84045F848
:1036B000784F2C63AC61AC82EC826C62AC62FDF73B
:1036C0003FFC45F8200FA5F134008481AD6AFDF779
:1036D000EDFB3846FCF72EFD002DDFD1FCF726FD73
:1036E0000746FDF7D3FB1448056806E0FCF71EFD0E
:1036F0000746FDF7CBFBAC85AD69FDF7D7FB384638
:10370000FCF718FD002DF1D101F0CAFB01F09EFD80
:103710003480BDE8F081000092000020A400002069
:10372000B8000020C00000204400002074000020E9
:103730006C150020AC00002068000020F8B504469D
:103740006946244800F012FBBDF8000058BB6A46E9
:103750000021022000F052FBBDF8000018BBFCF76E
:10376000E5FC0746FDF792FB1B4E00253560FDF793
:103770009DFB3846FCF7DEFC184919480A680368C7
:103780009A4202D9B2FBF3F010B90A21B2FBF1F070
:103790006A46002100F032FB69460E4800F06EF9DF
:1037A000BDF8000008B12080F8BDFCF7BFFC07465B
:1037B000FDF76CFB0B480C490560306808600B494D
:1037C00001200870FDF772FB3846FCF7B3FC25803A
:1037D000F8BD00008818002094000020307C00080C
:1037E0001C7C0008A400002098000020A0000020FD
:1037F00002480068002800D00047704730000020D1
:103800002DE9FF4F83B004465448DDE91785DDE913
:1038100010960078DDF854A0139F10B147F24A10BB
:1038200024E04CB1059850B166B14D48006887421C
:103830000BD246F6306019E047F2AD1016E047F2C1
:103840004F1013E046F62F6010E01298B84202D3F2
:1038500046F631600AE046F27320B9F1200F05D236
:10386000B9F11F0F06D13F498C4203D0288007B021
:10387000BDE8F08F204601F0F1F84FF0000BA5F8FD
:1038800000B05FEAC8700AD05FEA887007D530469A
:1038900000215A4601E004C0491CB942FBD31298EA
:1038A000CDE9007806EB8005DDE905012B463246BF
:1038B00000F024FA0599A1620699E1620499216257
:1038C00084F83790C4F854A0A56020605FEA0A002D
:1038D00036D0A0651698A76366626060A4F83C8045
:1038E0000020594604EB8002401CD16710F0FF0015
:1038F000F8D004F16400149900F048FC204600F070
:1039000039F8FCF713FC0546FDF7C0FA94F83700C8
:1039100000F094FD204600F003FE204601F060F820
:1039200011490888401C08801048007801280AD0F6
:10393000FDF7BCFA07B02846BDE8F04FFCF7FABB2C
:103940000B480068C5E7FDF7B1FA2846FCF7F2FB23
:1039500007B0BDE8F04FFFF77FBD0000400000203A
:103960002C7C0008A4140020B00000204800002097
:103970008000002002490968002900D008477047EC
:103980002000002070B5044634480D46007810B180
:1039900047F24E1004E03248844203D147F24C1003
:1039A000088070BD5CB9FCF7C1FB0646FDF76EFAF6
:1039B0002C480468FDF77AFA3046FCF7BBFBFCF7AD
:1039C000B5FB0646FDF762FA94F8360008283CD2AB
:1039D000DFE800F004080C0C1C080C0C204600F07A
:1039E000D3FD13E0204601F03FFA0FE0204601F03E
:1039F0003BFA94F83400072808D2DFE800F0070407
:103A0000070404040400204600F073FC04F1640081
:103A100000F0A2FB204600F029F8204600F0F2FF5B
:103A200011490888401E0880204601F017F8FF2041
:103A300084F83600FDF73AFA3046FCF77BFB0020AD
:103A40002880BDE87040FFF707BDFDF72FFA30462C
:103A5000FCF770FB46F62D60288070BD400000200A
:103A6000A4140020D0000020B00000200249096802
:103A7000002900D0084770472400002070B5054693
:103A800012480C46007818B147F25510088070BDF6
:103A9000FCF74CFB0646FDF7F9F91DB10C48006830
:103AA000854208D1FDF702FA3046FCF743FB47F2A6
:103AB0005710208070BDFDF7F9F93046FCF73AFB4E
:103AC00021462846BDE8704001F03AB84000002089
:103AD000D000002002490968002900D0084770473B
:103AE000280000202DE9F04781464A4814461E462A
:103AF0000078884610B146F2AE1006E0080006D005
:103B0000B1F5004F03D045F6256018803DE0002751
:103B100004B12760FCF70AFB8246FDF7B7F93E4D7A
:103B20002968486CD8B1401E804648640CB1086CC6
:103B30002060FDF705FA29680A6C801AC1F8A40014
:103B4000D1F8A820824201D2C1F8A800FDF7AEF951
:103B50005046FCF7EFFA37804046BDE8F0875FEA51
:103B6000084007D5FDF7A2F95046FCF7E3FA46F204
:103B7000B01009E02948007848B1FDF797F95046A0
:103B8000FCF7D8FA46F6635030800020E5E70021C4
:103B90004B460722084600F00DFBFDF787F950461B
:103BA000FCF7C8FAFFF758FCFCF7C0FA8046FDF7AF
:103BB0006DF9286890F8351031B1012916D0032924
:103BC0001AD046F62E601BE074B1006C2060FDF741
:103BD000B7F929680A6C801AC1F8A400D1F8A820A6
:103BE000824201D2C1F8A80037800AE00CB1006C13
:103BF000206046F2A91003E004B1276047F2D92003
:103C000030802868446CFDF751F94046FCF792FA81
:103C10002046A2E740000020D00000207C000020C9
:103C200070B50D000646144607D0B5F5004F04D018
:103C300045F625601080002070BDFDF781F9024631
:103C4000234629463046BDE8704000F0E1BF000041
:103C50002DE9F0470546274816460F4600781C46D2
:103C600010B147F259100AE046F2D5203FB136B103
:103C7000FCF75CFA8146FDF709F91DB104E01880F4
:103C8000BDE8F0871C4805684FF00008286858B167
:103C900095F83C00C00713D0FDF708F94846FCF73B
:103CA00049FA0020696A1AE0FDF700F94846FCF776
:103CB00041FAC7F8008047F25210C6F800800AE0C7
:103CC000FDF7F4F84846FCF735FAC7F8008047F2EC
:103CD0005410C6F800802080D2E7401C091D0A68F5
:103CE000002AFAD03860A96B081A3060A4F8008066
:103CF000C6E7000040000020D000002010B5029C64
:103D000002EB84024FF0807442E90204164842F844
:103D10000C0C4FF0123042F8100CA2F114004FF0CE
:103D2000023240E903134FF0113140F8101CD1006A
:103D300040F8141C4FF0093140F8181C910040F86D
:103D40001C1C4FF007314FF0033440F8201C610079
:103D500040F8241C4FF0053140F8281D5100C0E9FF
:103D6000092440F8041D10BDF94B0008074A1278D9
:103D700012B147F25D1004E0054A904203D147F2C8
:103D80005B100880704700F099BF000040000020E1
:103D9000A414002070B51548006800B18047FDF7F5
:103DA000CFF8134C134A21681268914207D0D1F81A
:103DB0009830C31A41F8943F8D682B448B60C2F849
:103DC0009800FDF745F82168D1F8B420824201D26D
:103DD000C1F8B400084AD1F8B8301068834201D263
:103DE000C1F8B8000020106070BD00003400002051
:103DF000D0000020D4000020780000202DE9F04100
:103E0000064621480D461446007810B147F2752049
:103E10002AE01E48007810B146F6635024E045B110
:103E2000022D06D0042D05D0082D02D045F62560C0
:103E30001AE0BEB1FCF77AF98046FDF727F8144F77
:103E40000121234638682A4680F83610314600F0B2
:103E50009FFF208858B1FDF729F84046BDE8F041A2
:103E6000FCF768B947F27E201080BDE8F081386821
:103E700000F08AFBFDF71AF84046FCF75BF9FFF704
:103E8000EBFA00202080F0E7400000207C000020BA
:103E9000D00000202DE9F047434DDDE908642D787E
:103EA00015B147F275207AE0404D2D7815B146F6F0
:103EB000635074E016F00E0547F27E2945F625673B
:103EC00005D0022D03D0042D05D0082D06D113B93D
:103ED0000AB901B9F0B336F01E0C02D02780BDE854
:103EE000F087C6F3001647F2792C47F278284FF492
:103EF0007A7736B142F20F76B14211D9A4F800C0F8
:103F0000EDE7BB4202D347F27B2048E03B2A02D9CF
:103F100047F27A2043E03B29F0D8632802D804E036
:103F2000B84202D3A4F80080D9E7214E4FF4FA7CBE
:103F3000C1EB01113668BCFBF6FC63447343B3FB71
:103F4000F7F34FF46167784300EB8100104400FB06
:103F5000063600E025E026B3FCF7E8F88046FCF7DB
:103F600095FF144F0121234638682A4680F8361001
:103F7000314600F00DFF208830B1FCF797FF404636
:103F8000BDE8F047FCF7D6B8386800F0FDFAFCF75A
:103F90008DFF4046FCF7CEF8FFF75EFA0020208048
:103FA0009DE7A4F800909AE7400000207C000020E4
:103FB000307C0008D000002008B500F029F86A46DF
:103FC00000210D48FFF72CFE0C480D49007800EB4E
:103FD000400001EB800000F02DFB0A490868401EFC
:103FE000086007D108486A46006808600021074851
:103FF000FFF716FE08BD0000C01700206200002079
:1040000078150020CC000020C8000020881800206F
:1040100002480068002800D00047704738000020A0
:1040200070470000034A00211160034A118001809B
:10403000704700004C000020500000200A4C0B4D3F
:10404000FCF774F80646FCF721FF2068401C20604E
:104050002868401C2860FCF729FF3046FCF76AF806
:10406000FFF7D4F8ECE700003C00002094000020AB
:1040700000B50E4A89B0002111600B22059106910E
:10408000CDE907200A480B4A0B4B006812681B68F1
:104090000292CDE903011F20CDE900030023074A66
:1040A00007A10C48FFF7ACFB09B000BD3C000020A5
:1040B000047C0008007C0008FC7B00083D400008F0
:1040C00075432F4F532D4949492049646C6520544D
:1040D00061736B00A4140020034A00211160034A9D
:1040E000118001807047000054000020580000201B
:1040F000F0B5164C216859B1154E318859B189B2C5
:10410000491E22688FB2002502F1100329460EE0F5
:1041100045F21E7118E045F21D7115E0E2E802312A
:104120006D1C22F8081BADB242F8041C1033BD42CE
:10413000F4D3116051601181D160064A2368136085
:1041400033889380D18011810180F0BD147C0008F8
:10415000107C00086C15002010B5428992B10A4904
:1041600003680C681C6043680B60CB8844891B1B88
:10417000CB808B88448923448B80002141818181BD
:1041800001604160104610BD6C15002001810021C6
:10419000418181810160416070470000034A002134
:1041A0001160034A11800180704700005C0000200C
:1041B000600000202DE9F041114D07460C462868AB
:1041C0000026194680F8342080F8356000F0F2FBB4
:1041D00064B1FC6004F1080601223946286800F049
:1041E00011F83946304600F057F802E02868C687D3
:1041F000066320462968BDE8F04100F01BB80000C6
:10420000D000002010B5C2870024234601630EE0D1
:104210004B6041F8103B641C41F8103BA4B241F8DC
:104220000C3C21F8083C41F8043C41F8180C94423D
:10423000EED310BD38B14268C1F8C42081688968E6
:10424000096AC161704791F83400022803D0072839
:1042500003D004A002E004A000E005A0C1F8C4005F
:1042600070470000200000005461736B2051000073
:104270005461736B2053656D0000000005A2C1F806
:10428000C420816811B18968096A00E001A1C16197
:10429000704700002000000030B58A68002392F8C3
:1042A000374002891AB1521C028102680BE00122D8
:1042B00002814B600B60016014E0956895F83750FF
:1042C000A54203D85268002AF7D107E032B114683A
:1042D00054B1C1E900426160116030BD4B60426879
:1042E0000A605160416030BD1160C1E90032016077
:1042F00030BD70B50646C48F056B07E0E8682946F7
:10430000083000F009F8641EA4B22035002CF5D165
:104310000020F087306370BD10B502890023012AA8
:104320000BD00A6862B14C6874B154602260028993
:10433000521E02814B600B6010BD03604360F6E7C4
:104340004A6813600260F2E753604260EFE7F8B535
:104350000C46064691F836100025069808293BD2EF
:10436000DFE801F03A3A04043A3A202094F8341095
:10437000032911D0E265A4F86030206436B12046EC
:10438000FFF7B7FF21463046FFF778FF204600F0E1
:10439000C9FB84F836501BE000902146304600F0FF
:1043A00022F8EBE794F83410032916D0E265A4F85C
:1043B00060302064204600F057FD36B12046FFF7FC
:1043C00098FF21463046FFF759FF042084F8360055
:1043D00084F8355084F83450F8BD009021463046BA
:1043E00000F001F8E6E770B50C6B049DC98F0AE098
:1043F000E668864204D1C4E904022383E56170BD06
:10440000491E89B220340029F2D170BD10B50024B4
:10441000064802E02034E4B2001D01680029F9D00A
:104420000846FBF78EFE2044C0B210BD1C000020E1
:1044300001490020086070471C00002000F01F02A6
:1044400041090120C2F11F029040034A52F8213075
:10445000034342F8213070471C00002000F01F0287
:1044600041090120C2F11F029040034A52F8213055
:10447000834342F8213070471C000020034A00218A
:104480001160034A1180018070470000680000201D
:104490006C0000200020074B014600BF00EB4002EB
:1044A00003EB8202401C11811160C0B251602028D0
:1044B000F4D370477815002010B5044690F8370003
:1044C000FFF7BCFF074994F8370009788842204677
:1044D00003D1BDE8104000F023B8BDE8104000F063
:1044E00003B800006200002090F837100B4A01EB7F
:1044F000410102EB810100220B8943B15B1C0B815E
:104500000B68C0E903320A68106108607047012334
:104510000B81C26002610860486070477815002016
:1045200090F837100A4A01EB410102EB81010022A9
:104530000B893BB15B1C0B81C2604A680261D06091
:104540004860704701230B81C26002610860F7E791
:104550007815002010B50289002A14D0012A12D043
:104560000021022A07D0D0E90024D3681961C2E9EA
:104570000314E26005E0D0E90023C2E90313C3E9B4
:104580000321C0E9003210BD70B5054690F8370030
:10459000114900EB400001EB8001D5E90302002442
:1045A00042B10B895B1E0B81D06090B102612C611E
:1045B000EC6070BD28B10A89521E0A81046108604E
:1045C000F5E70C810C604C6095F83700FFF746FF6B
:1045D000EDE74A60EBE7000078150020044810B5CD
:1045E0000078012803D1FCF7ABFC0249086010BD3C
:1045F0007C000020700000200A4810B500780028D8
:104600000ED1FCF79DFC08490968401A07490A6861
:10461000824200D2086006490A68824200D20860DD
:1046200010BD00007C0000207000002074000020FD
:104630007800002070B5044614480078012824D181
:10464000FBF774FD0546FCF721FC2168B1B1104869
:10465000814213D08A6D12B1521E8A650ED1208913
:1046600002280BD30B48007840B92046FFF772FFB1
:104670002068416D09B9084909688165FCF716FC95
:104680002846BDE87040FBF755BD70BD8400002092
:10469000A41400207C00002080000020034A002198
:1046A0001160034A118001807047000088000020DB
:1046B0008C0000200EB5804C804E2068450004E040
:1046C00028466A460021FFF799FB30780128F7D188
:1046D0006846FEF7BFFF7A4822680168914206D912
:1046E0000A462168B2FBF1F15FEA010803D10068D4
:1046F0000A21B0FBF1F8DFF8CCB1734F42F2107928
:104700005FF00006FCF71CFC0190FCF7B1FB6F4961
:104710000860FBF70BFD0546FCF7B8FB6C486D4CD9
:10472000016821600660FCF7C1FB2846FBF702FD2B
:104730006948236802689A422BD96848824202D2AB
:104740004846012115E06648824203D24FF47A7050
:104750000A210EE06348824202D26420014608E04A
:104760006148824203D20A204FF47A7101E00120AD
:104770004946B2FBF1F15843B0FBF1F1A9EB01005E
:104780005A4980B2ABF800000A88824203D20880FE
:1047900001E0ABF80090FFF72BF80024FBF7C6FC14
:1047A0008246FCF773FB3D6816E000BFFBF7BEFCDA
:1047B0008246FCF76BFB55F89C0FC5E90060FCF7DF
:1047C00075FB5046FBF7B6FC68680444FBF7AEFC8B
:1047D0008246FCF75BFB6D6AFCF768FB5046FBF713
:1047E000A9FC002DE2D12CB33C48844202D24D46B4
:1047F000012015E03A48844203D24FF47A750A202A
:104800000EE03848844202D26425284608E0364843
:10481000844203D20A254FF47A7001E0012548460C
:10482000B4FBF0F08246FBF781FC0290FCF72EFB14
:104830003C6822E000250120F4E700BFD4F8A01076
:104840006943B1FBFAF080B2484500D94846A4F864
:104850008C00B4F88E10814201D2A4F88E0004F1CD
:10486000AC026B46111D2046FFF7F2F9FBF75EFC28
:104870000290FCF70BFBD4F8C040FCF717FB029842
:10488000FBF758FC002CD9D119480178012903D134
:1048900006706846FEF7DEFEFCF752FB0199401AEF
:1048A00014490A68824200D208606A4600214046E4
:1048B000FFF7A4FA26E700001C7C0008A0000020F7
:1048C000307C000890000020AC0000204400002054
:1048D000940000209C00002098000020801A060010
:1048E00000093D00005A62020084D71792000020A0
:1048F0008E000020A400002030B51D4A89B00021A0
:1049000011601C4A11601C4A11601C4A11701C4A3B
:1049100011701C4A136843B11B4B1C4D1C682D6859
:10492000AC4205D246F62C6108E046F62B6105E064
:10493000174C25781F2D04D346F62A61018009B053
:1049400030BD032505910691CDE9075011481B683C
:1049500012680068CDE90120CDE90331207800908C
:1049600000230D4A0DA11248FEF74AFFE7E70000B9
:10497000940000209C00002098000020A00000204F
:104980008E000020207C0008287C00082C7C000879
:10499000187C0008247C0008B546000875432F4F9A
:1049A000532D4949492053746174205461736B003D
:1049B000F816002038B50446022531B16B460222B4
:1049C00000F0E6F9BDF8000028B184F83650204622
:1049D000FFF7DAFD38BD032084F83600F7E7000062
:1049E000074B0022C0F8BC20196829B1C0F8C010DC
:1049F000C1F8BC0018607047C0F8C020FAE700009A
:104A0000AC000020D0E92F2100234AB181B1C2F8C7
:104A1000C010C1F8BC20C0F8C030C0F8BC3070472E
:104A2000054A116009B1C1F8BC30C0F8C030704708
:104A3000C2F8C030F1E70000AC000020044A0021B9
:104A40001160044A1180044A11600180704700001F
:104A5000AC000020B0000020A800002070B50025A8
:104A6000056085604560C5600561456104468561F6
:104A700029A0C4E907506562A562E5622563E58760
:104A80002564E565A4F86050002104F16400FFF797
:104A90007DFB6567A567C4F88050A4F888500020A6
:104AA000C4F8845004EB8001401CCD6710F0FF0077
:104AB000F8D06564C4F8A450C4F8A850A56384F87D
:104AC0008A50C4F8B050C4F8AC50A5874FF00040ED
:104AD000C4E9120525656565A565A4F88C50A4F8A0
:104AE0008E50C4F89050C4F894503434FCF728FA2F
:104AF000C4E91905C4F88050C4F8845004F8015B77
:104B0000202004F8015B04F8015B04F8850B04A085
:104B100020C4C4E9005070BD3F5461736B000000B5
:104B20002000000010B5044600F09EF994F836000D
:104B3000400704D42046BDE81040FFF7BDBC10BDBF
:104B400070B50D460446FBF7F1FA0646FCF79EF9F0
:104B50000020288094F83610082944D2DFE801F0BC
:104B6000040404040D232D37FCF7A0F93046FBF7AD
:104B7000E1FA47F25310288011E094F88A10491E98
:104B800011F0FF0184F88A1004D184F83600204621
:104B9000FFF7C8FFFCF78AF93046FBF7CBFABDE810
:104BA0007040FEF759BC94F88A00401E10F0FF00D8
:104BB00084F88A00EED1012012E094F88A00401EA9
:104BC00010F0FF0084F88A00E4D1022008E094F895
:104BD0008A00401E10F0FF0084F88A00DAD103201A
:104BE00084F83600D6E7FCF761F93046FBF7A2FA05
:104BF00046F62D60288070BD044808B50068FEF7B1
:104C000069FF69460020FEF7BDFE08BDD000002008
:104C10002DE9F8431E46144688460546FBF786FAFA
:104C20008146FCF733F90DB923480568002046F6A4
:104C3000C5572C64308095F83600082830D2DFE85C
:104C400000F004040F0F04040F0F6C6C601C1ED0E6
:104C5000641C6C64FCF72AF94846FBF76BFA28E001
:104C600095F834000728F0D100231A462946184643
:104C70000094FFF76CFB6C6CFCF718F94846FBF7E7
:104C800059FA5FEA084014D4FEF7E6FB11E0FCF79E
:104C90000DF94846FBF74EFA37800020BDE8F8834F
:104CA000FCF704F94846FBF745FA46F62D603080DC
:104CB00000242046F2E70000D000002070B50D4629
:104CC0000446FBF733FA0646FCF7E0F8234804B93C
:104CD0000468006884420AD12148007838B1FCF7A2
:104CE000E5F83046FBF726FA46F6635034E000203C
:104CF000288094F836100120082926D2DFE801F038
:104D0000040D181A20202020042184F8361084F87D
:104D10008A002046FFF738FC01E005210BE0FCF794
:104D2000C5F83046FBF706FABDE87040FEF794BBC5
:104D3000062100E0072184F8361084F88A00EEE7A7
:104D400014F88A0F401C2070E9E7FCF7AFF83046F2
:104D5000FBF7F0F946F62D60288070BDD0000020EA
:104D60007C00002010B500200146074C074B06E0F0
:104D700004EBC002401C11609180D18080B21A887F
:104D80009042F5D310BD000094110020447C00082F
:104D9000F0B5324C47F27E2625680024042A08D05C
:104DA000B1B32E4E082A36680E440BD0C0E9136109
:104DB00015E04A1B521E12F5803F2AD8521CC0E94A
:104DC00013120CE0826C0A44571B7F1E8F4201D2E3
:104DD000C26400E0C664C16C4A1B02658164204A5B
:104DE000C16C1288B1FBF2F602FB16111D4A89B2A2
:104DF00002EBC102918889B11168F1B1CE6C761BCA
:104E00000E65076DB74212D94E6966B13146F5E7B6
:104E1000FFE7C4640465C4611E80F0BD4461846121
:104E2000012110600BE0C0E90541486105E08D6992
:104E300075B1C0E90515686188619188491C918048
:104E4000D58889B28D4200D2D180C2611C80F0BD6C
:104E5000C0E9051488611060EFE70000B40000208D
:104E6000447C00089411002010B5C269002A15D0B6
:104E7000002101651368834204D14369136033B193
:104E8000996104E0D0E90534636103B19C6141613B
:104E90008161C161C1649088401E908010BD000096
:104EA00010B500200446064B064A04E003EBC0019F
:104EB000401CCC8080B211888842F7D310BD00001E
:104EC00094110020447C00082DE9F05FFBF72EF9D7
:104ED0008346FBF7DBFFFCF733F83D4D07463D49C2
:104EE00028684FF00008401C286009884FF003092B
:104EF000B0FBF1F201FB1200374980B24FF0040A17
:104F000051F83040C4B394F83600666908284DD291
:104F1000DFE800F04C044C104C264C33E06C296860
:104F2000421A2265884243D184F836802046FFF732
:104F3000F9FD3BE0E16C28680A1A2265814237D10D
:104F4000C4F85C80A4F86080FBF7FAFF2064204678
:104F5000FFF7CFF92046FFF7E5FD84F8368021E022
:104F6000E06C2968421A2265884221D184F836A073
:104F70002046FFF779FF19E01AE0E16C28680A1A69
:104F80002265814214D1C4F85C80A4F86080FBF7EC
:104F9000D7FF20642046FFF7ACF92046FFF764FFF7
:104FA00084F836A084F8359084F834803446A9E734
:104FB000FBF7C6FF0949C01B0A68824200D208609D
:104FC000FBF774FF5846BDE8F05FFBF7B3B800008D
:104FD000B4000020447C000894110020B800002098
:104FE0001CB5084C00216B4601AA0846FEF77AFD65
:104FF000BDF800000028F5D120780128F2D1FFF794
:1050000063FFEFE74800002030B504461A4889B036
:105010000025056019480560FFF7A4FE18480168DF
:1050200041B11849184B0A681B689A4205D247F2E9
:10503000132008E047F2122005E0144A13781F2BD2
:1050400004D347F21120208009B030BD0B23059511
:105050000695CDE907340E4B096800681B68CDE959
:105060000103CDE90315107800900023094A0AA135
:105070000E48FEF7C5FBE7E7B4000020B8000020AB
:10508000387C0008407C00082C7C0008347C000838
:105090003C7C0008E14F000875432F4F532D4949D0
:1050A00049205469636B205461736B00C017002062
:1050B00030B52A4A89B00021294B1160294C2A4A6F
:1050C0001D681DB12468B4FBF5F303E023680A24CE
:1050D000B3FBF4F313601A46244B274D274C1A6098
:1050E000234A1160234A1160002206E005EBC20347
:1050F000521C9980D98092B2196023889A42F5D3C4
:105100001F4B1A6842B11F4A1F4D14682D68AC42EC
:1051100005D247F2483108E047F2473105E01B4C21
:1051200025781F2D04D347F24631018009B030BDE8
:105130000B2505910691CDE907501068144A1B68AC
:105140001268CDE90301CDE90132207800900023F7
:10515000104A11A11648FEF753FBE7E7BC000020F8
:10516000487C0008307C0008C8000020CC000020EB
:10517000C4000020C00000201C140020587C00083F
:105180004C7C0008547C00082C7C0008467C0008FD
:10519000507C00087552000875432F4F532D494924
:1051A000492054696D6572205461736B00000000E2
:1051B0008818002070B5022280F82A20204A012990
:1051C00014681ED0016AE1B11E4A2144816112882F
:1051D000B1FBF2F302FB13121B4B92B203EBC202C0
:1051E000002315687DB1091BC1611168D1B18D69BA
:1051F0002D1BCD61C669AE420ED90D6945B1294658
:10520000F5E7416AE0E703614361106001200BE0CC
:10521000C0E90431086105E04C6964B1C0E90414D7
:10522000206148619088401C9080D18880B2814282
:1052300000D2D08070BDC0E9041348611060F1E76E
:10524000C4000020587C00081C14002010B5002069
:105250000446064B064A04E003EBC001401CCC8028
:1052600080B211888842F7D310BD00001C140020C2
:10527000587C00081CB5DFF89090DFF890A0244D12
:10528000DFF890B000216B4601AA0846FEF72AFC21
:105290006846FEF71FF9FBF753FE064628684FF0F5
:1052A0000308401C2860B9F80010B0FBF1F201FBC4
:1052B000120080B25AF83040C4B1A0692968276949
:1052C000884213D1204600F027F8208D022808D00C
:1052D00084F82A80A26812B12046E16890473C46D3
:1052E000EAE701212046FFF765FFF3E7FBF728FE19
:1052F000841B6846FEF748F9DBF80010A142C1D2D2
:10530000CBF80040BEE70000587C00081C140020C9
:10531000C4000020C000002010B5104A8169128826
:10532000B1FBF2F302FB13110D4A89B202EBC10289
:10533000002314680169844203D1116029B14B61D3
:1053400003E04469216101B14C61012180F82A1018
:10535000036143619088401E908010BD587C000816
:105360001C1400202DE9F05F044648F60F7B4FF037
:10537000020A4FF480684AE1B0F8441011F00F06B9
:1053800029D030F82670390479D530F8261040F647
:105390008F72114041F0800120F8261004EB461571
:1053A00095F8340105F594750028206868D02978AF
:1053B00030F8212052047DD5B0F850200AEBC1010D
:1053C0000A4408EB4201415AC1F309015FEA0109AD
:1053D00071D02A89D2E0C9062DD4018801EA0B01D7
:1053E00041F400410180206804F12805B0F8502004
:1053F0002B780AEBC3010A4408EB4201405AC0F380
:1054000009006064E16B0844E06300212046FCF77A
:1054100030FC94F824000028ADD0A8690028AAD157
:1054200094F82400216840F08000A1F84C0000208E
:1054300084F82400EBE0018804F594750A0520D572
:10544000B0F850202B78062101EBC3010A4408EB89
:105450004201405A04F50C71C0F30903EB61EA887C
:10546000206801F00BFB2068018840F68F72114024
:1054700041F0800101802046FCF72BFEC7E0A2E04E
:1054800058E0090455D5018840F68F72114041F06B
:10549000800101802168B1F850202B78062000EBB4
:1054A000C300024408EB4200085A83059B0DEB61E0
:1054B00010D001E053E065E0696959B1EA882068DD
:1054C00001F0DCFAE9696869084468610021204656
:1054D000FCF7D6FB2068B0F850100844296900F2A8
:1054E0000C4051B13E2910D84A08C90700D0521CBF
:1054F0004FF6FF7101EA82210FE0018821F4F841A3
:105500000180018841F4004107E04A09C90600D141
:10551000521E4FF4004141EA822101802068018837
:105520004BF68F72114081F4405148F280021143D2
:1055300001806CE0B0F850202B78062101EBC3010C
:105540000A4408EB4201415AC1F309015FEA01092B
:1055500024D0EA884B46696901F090FA1EE0B0F861
:105560005030062202EBC1015A1808EB4201415AA1
:10557000C1F309015FEA010904D06A894B466969F0
:1055800001F07CFA2878226832F8201048F68F73F0
:10559000194048F2C003194322F82010E869484432
:1055A000E861686900EB09026A61AB6913B12869B7
:1055B000484504D929782046FCF762FB03E02978A6
:1055C0002046FCF7E3FB380621D5216804EB4610A2
:1055D00031F8262002EA0B0242F4004221F826208C
:1055E0002168B1F8505010F8282F0AEBC2022A4463
:1055F00008EB4202895AC1F30901C16142690A44B8
:10560000426101788369204653B1FCF70BFC2068A6
:10561000B0F8441009043FF5AFAE0020BDE8F09F9C
:10562000FCF727FBF3E7704710B5FAF77FFD044658
:10563000FBF72CFC07490878401C0870FBF736FC88
:105640002046FAF777FDFEF7B7FCBDE81040FDF7FE
:10565000BBBE00004000002030B593B02821684652
:10566000FBF792F814210AA8FBF78EF8002401201A
:105670000F9410941194010412948DE81300049077
:105680004FF4E010CDE90810022507956846FCF7B5
:105690009BFE0F20CDE90A056802CDE90C400221EE
:1056A0000AA80E94FCF7BEFD12200F90A803CDE9C6
:1056B00011040FA8FCF740FD13B030BD0D48016880
:1056C00041F00101016041680B4A114041600168ED
:1056D0000A4A11400160016821F48021016041689B
:1056E00021F4FE0141604FF41F0181600449C003B1
:1056F00008607047001002400000FFF8FFFFF6FE50
:1057000008ED00E0F0B50268164B174C174D4FF04E
:105710008047984205D0B84203D0A04201D0A842A9
:1057200003D122F070064A683243984205D0B8424D
:1057300003D0A04201D0A84203D122F44074CA6829
:1057400022434C6922F08002224302608A68C262CE
:105750000A688262984201D10969016301214161AD
:10576000F0BD0000002C0140000400400008004093
:1057700010B5846842EA032224F47F440A4322439A
:10578000826010BD826822F070020A4342F0070175
:105790008160704710B5036A046A24F00104046252
:1057A000846924F0F00444EA021423F00A020A4354
:1057B0008461026210BD10B5036A23F01003036216
:1057C0008369046A23F4704343EA023224F0A0039D
:1057D00043EA01118261016210BDD0F8B8020021D4
:1057E00080F850100846704770B50546D0F8B842AA
:1057F000D5F8BC226178D2682078904740232246B1
:105800000121284600F0BEFB002070BD70B50446A3
:10581000812100F0B7FA002501212046E56200F061
:10582000B1FAC4F86C51D4F8B80248B1D4F8BC024B
:1058300004F52E7480688047206800F00EFE256015
:10584000002070BD10B5D0F8B842E16C012908D134
:10585000D0F8BC0223786178C268184690470020CF
:10586000E064002010BD00000A210180004870475C
:10587000F402002042210180004870471C020020F1
:1058800042210180004870476002002042210180CF
:1058900000487047A402002070B504460026082383
:1058A0000322822100F062FB402303228121204653
:1058B00000F05CFB01254023032229462046E562D7
:1058C00000F054FB5420C4F86C5100F0C7FDC4F83C
:1058D000B80278B10546002085F85000D4F8BC0223
:1058E0004068804740232A460121204600F04AFBB9
:1058F000304670BD0126FBE702460220002902D097
:105900000020C2F8BC12704710B5134690F89C42B4
:10591000D0F8B822032C0BD192F850400CB10120E2
:1059200010BD012482F850400A46812100F0C5FBD9
:10593000002010BDF8B50022D0F8B832ADF8002034
:105940000E781546144616F0600622D0202E62D13D
:105950004A78921E0A2A5ED2DFE802F010085D5DE6
:105960005D5D5D140C058878186457E0012203F131
:10597000400141E04888000A58644FE0012203F1E9
:10598000440139E00122DA64CA88194600F070F84F
:1059900044E04E7836B1062E0BD00A2E2FD00B2EB7
:1059A00039D134E090F89C22032A34D1022269468E
:1059B00022E04B882226B6EB132F12D18B8813B12D
:1059C000012B08D017E0CA88222A00D92222D0F859
:1059D000BC120D680FE0CA883F2A00D93F22124D41
:1059E00009E02126B6EB132F05D10F4DCA88183DCB
:1059F000092A00D90922294600F054F80EE090F84F
:105A00009C22032A07D1012203F14801F4E790F810
:105A10009C22032A04D000F020F802242046F8BD7E
:105A200088789864FAE700000003002010B5D0F8E9
:105A3000B42252689047002010BD134610B50A46A4
:105A4000002100F09FFA002010BD134610B50A4651
:105A5000002100F032FB002010BD10B5044680216B
:105A600000F010FB2046BDE81040002100F00ABB0A
:105A700010B50323C0F85C21C0F89432C0F860214F
:105A800013460A46002100F07DFA002010BD10B533
:105A900005210023C0F894121A46194600F072FA44
:105AA000002010BD10B50223C261C0F8943202621A
:105AB00013460A46002100F000FB002010BD10B57F
:105AC00004210023C0F894121A46194600F0F5FA92
:105AD000002010BD10B50A46024903A000F0EEF800
